:0300000002089B58
:0C089B00787FE4F6D8FD7581200208E2A9
:100A44000A0DC0F9A4B0999282F8809001170001B0
:060A54000800C101C10011
:100A2400E4FDFCC3ED9FEC9E5015E4FBFA0BBB0008
:0F0A3400010AEB647D4A70F50DBD00010C80E4F2
:010A43002290
:10080000AB07AA060508E508640A707B0517E5171B
:10081000B401177C037DE812097C7C007D0A120973
:100820007C740D2DF8E6F580C2A7E517B4021B7C99
:10083000007D64AF03AE0212097C7C007D0A1209C0
:100840007C740D2DF8E6F580C2A6E517B4031B7C79
:10085000007D0AAF03AE0212097C7C007D0A1209FA
:100860007C740D2DF8E6F580C2A5E5176404702AA6
:10087000AE02AF03FC7D0A12097C740D2DF8E6F57B
:1008800080C2A4E4F51722E508B4140ED2A4D2A5C0
:0B089000D2A6D2A77580FFE4F5082275
:10092700AF0CAE0B120800309002D2012090453078
:100937000142C201050CE50C7002050BD3940FE5CB
:100947000B94274005E4F50BF50CE50CB40F09E50E
:100957000BB42704D2928002C292AE0BAF0C7C007C
:100967007D0A12097C8C098D0AE50A45097003D2B4
:050977009122C2912253
:100A5B00C291E4F50BF50CC2921209271209D18051
:010A6B00F892
:1009D10030004420A218C200050CE50C7002050B82
:1009E100D3940FE50B94274005E4F50BF50C20A1FA
:1009F1001BC200E50C150C7002150BD3E50C940F0E
:100A0100E50B94274006750B27750C0F20A013C228
:100A110000E4F50BF50C2230A20830A10530A0024C
:030A2100D20022DE
:1008A700020A5BE493A3F8E493A34003F68001F202
:1008B70008DFF48029E493A3F85407240CC8C33352
:1008C700C4540F4420C8834004F456800146F6DF21
:1008D700E4800B0102040810204080900A44E47E63
:1008E700019360BCA3FF543F30E509541FFEE49316
:1008F700A360010ECF54C025E060A840B8E493A3DD
:10090700FAE493A3F8E493A3C8C582C8CAC583CA07
:10091700F0A3C8C582C8CAC583CADFE9DEE780BEBF
:010A5A00009B
:10097C00BC000BBE0029EF8DF084FFADF022E4CC5F
:10098C00F875F008EF2FFFEE33FEEC33FCEE9DEC28
:10099C00984005FCEE9DFE0FD5F0E9E4CEFD22ED6E
:1009AC00F8F5F0EE8420D21CFEADF075F008EF2FB8
:1009BC00FFED33FD4007985006D5F0F222C398FDA9
:0509CC000FD5F0EA2246
:00000001FF
